{
  "_format": "hh-sol-artifact-1",
  "contractName": "StravaConsumer",
  "sourceName": "contracts/StravaConsumer.sol",
  "abi": [
    {
      "inputs": [
        {
          "internalType": "uint64",
          "name": "functionsSubscriptionId",
          "type": "uint64"
        },
        {
          "internalType": "string",
          "name": "_source",
          "type": "string"
        }
      ],
      "stateMutability": "nonpayable",
      "type": "constructor"
    },
    {
      "inputs": [],
      "name": "EmptyArgs",
      "type": "error"
    },
    {
      "inputs": [],
      "name": "EmptySource",
      "type": "error"
    },
    {
      "inputs": [],
      "name": "NoInlineSecrets",
      "type": "error"
    },
    {
      "inputs": [],
      "name": "OnlyRouterCanFulfill",
      "type": "error"
    },
    {
      "anonymous": false,
      "inputs": [
        {
          "indexed": true,
          "internalType": "address",
          "name": "previousOwner",
          "type": "address"
        },
        {
          "indexed": true,
          "internalType": "address",
          "name": "newOwner",
          "type": "address"
        }
      ],
      "name": "OwnershipTransferred",
      "type": "event"
    },
    {
      "anonymous": false,
      "inputs": [
        {
          "indexed": true,
          "internalType": "bytes32",
          "name": "id",
          "type": "bytes32"
        }
      ],
      "name": "RequestFulfilled",
      "type": "event"
    },
    {
      "anonymous": false,
      "inputs": [
        {
          "indexed": true,
          "internalType": "bytes32",
          "name": "id",
          "type": "bytes32"
        }
      ],
      "name": "RequestSent",
      "type": "event"
    },
    {
      "anonymous": false,
      "inputs": [
        {
          "indexed": true,
          "internalType": "bytes32",
          "name": "requestId",
          "type": "bytes32"
        },
        {
          "indexed": false,
          "internalType": "string",
          "name": "activityType",
          "type": "string"
        }
      ],
      "name": "RequestSent",
      "type": "event"
    },
    {
      "anonymous": false,
      "inputs": [
        {
          "indexed": true,
          "internalType": "bytes32",
          "name": "requestId",
          "type": "bytes32"
        },
        {
          "indexed": false,
          "internalType": "string",
          "name": "activityData",
          "type": "string"
        },
        {
          "indexed": false,
          "internalType": "bytes",
          "name": "response",
          "type": "bytes"
        },
        {
          "indexed": false,
          "internalType": "bytes",
          "name": "err",
          "type": "bytes"
        }
      ],
      "name": "Response",
      "type": "event"
    },
    {
      "inputs": [
        {
          "internalType": "bytes32",
          "name": "",
          "type": "bytes32"
        }
      ],
      "name": "activities",
      "outputs": [
        {
          "internalType": "string",
          "name": "activityType",
          "type": "string"
        },
        {
          "internalType": "string",
          "name": "activityData",
          "type": "string"
        }
      ],
      "stateMutability": "view",
      "type": "function"
    },
    {
      "inputs": [
        {
          "internalType": "string",
          "name": "accessTokens",
          "type": "string"
        },
        {
          "internalType": "string",
          "name": "activityType",
          "type": "string"
        },
        {
          "internalType": "string",
          "name": "startTimestamp",
          "type": "string"
        },
        {
          "internalType": "string",
          "name": "expiryTimestamp",
          "type": "string"
        }
      ],
      "name": "executeRequest",
      "outputs": [
        {
          "internalType": "bytes32",
          "name": "requestId",
          "type": "bytes32"
        }
      ],
      "stateMutability": "nonpayable",
      "type": "function"
    },
    {
      "inputs": [],
      "name": "getLastActivity",
      "outputs": [
        {
          "components": [
            {
              "internalType": "string",
              "name": "activityType",
              "type": "string"
            },
            {
              "internalType": "string",
              "name": "activityData",
              "type": "string"
            }
          ],
          "internalType": "struct StravaConsumer.ActivityStruct",
          "name": "",
          "type": "tuple"
        }
      ],
      "stateMutability": "view",
      "type": "function"
    },
    {
      "inputs": [
        {
          "internalType": "bytes32",
          "name": "requestId",
          "type": "bytes32"
        },
        {
          "internalType": "bytes",
          "name": "response",
          "type": "bytes"
        },
        {
          "internalType": "bytes",
          "name": "err",
          "type": "bytes"
        }
      ],
      "name": "handleOracleFulfillment",
      "outputs": [],
      "stateMutability": "nonpayable",
      "type": "function"
    },
    {
      "inputs": [],
      "name": "lastError",
      "outputs": [
        {
          "internalType": "bytes",
          "name": "",
          "type": "bytes"
        }
      ],
      "stateMutability": "view",
      "type": "function"
    },
    {
      "inputs": [],
      "name": "lastRequestId",
      "outputs": [
        {
          "internalType": "bytes32",
          "name": "",
          "type": "bytes32"
        }
      ],
      "stateMutability": "view",
      "type": "function"
    },
    {
      "inputs": [],
      "name": "lastResponse",
      "outputs": [
        {
          "internalType": "bytes",
          "name": "",
          "type": "bytes"
        }
      ],
      "stateMutability": "view",
      "type": "function"
    },
    {
      "inputs": [],
      "name": "owner",
      "outputs": [
        {
          "internalType": "address",
          "name": "",
          "type": "address"
        }
      ],
      "stateMutability": "view",
      "type": "function"
    },
    {
      "inputs": [],
      "name": "renounceOwnership",
      "outputs": [],
      "stateMutability": "nonpayable",
      "type": "function"
    },
    {
      "inputs": [
        {
          "internalType": "uint256",
          "name": "",
          "type": "uint256"
        }
      ],
      "name": "requestIds",
      "outputs": [
        {
          "internalType": "bytes32",
          "name": "",
          "type": "bytes32"
        }
      ],
      "stateMutability": "view",
      "type": "function"
    },
    {
      "inputs": [
        {
          "internalType": "bytes32",
          "name": "",
          "type": "bytes32"
        }
      ],
      "name": "requests",
      "outputs": [
        {
          "internalType": "bool",
          "name": "fulfilled",
          "type": "bool"
        },
        {
          "internalType": "bool",
          "name": "exists",
          "type": "bool"
        },
        {
          "internalType": "bytes",
          "name": "response",
          "type": "bytes"
        },
        {
          "internalType": "bytes",
          "name": "err",
          "type": "bytes"
        }
      ],
      "stateMutability": "view",
      "type": "function"
    },
    {
      "inputs": [
        {
          "internalType": "string",
          "name": "_source",
          "type": "string"
        }
      ],
      "name": "setSource",
      "outputs": [],
      "stateMutability": "nonpayable",
      "type": "function"
    },
    {
      "inputs": [],
      "name": "source",
      "outputs": [
        {
          "internalType": "string",
          "name": "",
          "type": "string"
        }
      ],
      "stateMutability": "view",
      "type": "function"
    },
    {
      "inputs": [],
      "name": "subscriptionId",
      "outputs": [
        {
          "internalType": "uint64",
          "name": "",
          "type": "uint64"
        }
      ],
      "stateMutability": "view",
      "type": "function"
    },
    {
      "inputs": [
        {
          "internalType": "address",
          "name": "newOwner",
          "type": "address"
        }
      ],
      "name": "transferOwnership",
      "outputs": [],
      "stateMutability": "nonpayable",
      "type": "function"
    }
  ],
  "bytecode": "0x60a060405273a9d587a00a31a52ed70d6026794a8fc5e2f5dcb0600760006101000a81548173ffffffffffffffffffffffffffffffffffffffff021916908373ffffffffffffffffffffffffffffffffffffffff1602179055507f66756e2d6176616c616e6368652d66756a692d3100000000000000000000000060001b600855620493e0600960006101000a81548163ffffffff021916908363ffffffff160217905550348015620000b157600080fd5b50604051620037f3380380620037f38339818101604052810190620000d7919062000436565b600760009054906101000a900473ffffffffffffffffffffffffffffffffffffffff166200011a6200010e6200019260201b60201c565b6200019a60201b60201c565b8073ffffffffffffffffffffffffffffffffffffffff1660808173ffffffffffffffffffffffffffffffffffffffff16815250505081600960046101000a81548167ffffffffffffffff021916908367ffffffffffffffff16021790555080600a9081620001899190620006e7565b505050620007ce565b600033905090565b60008060009054906101000a900473ffffffffffffffffffffffffffffffffffffffff169050816000806101000a81548173ffffffffffffffffffffffffffffffffffffffff021916908373ffffffffffffffffffffffffffffffffffffffff1602179055508173ffffffffffffffffffffffffffffffffffffffff168173ffffffffffffffffffffffffffffffffffffffff167f8be0079c531659141344cd1fd0a4f28419497f9722a3daafe3b4186f6b6457e060405160405180910390a35050565b6000604051905090565b600080fd5b600080fd5b600067ffffffffffffffff82169050919050565b620002918162000272565b81146200029d57600080fd5b50565b600081519050620002b18162000286565b92915050565b600080fd5b600080fd5b6000601f19601f8301169050919050565b7f4e487b7100000000000000000000000000000000000000000000000000000000600052604160045260246000fd5b6200030c82620002c1565b810181811067ffffffffffffffff821117156200032e576200032d620002d2565b5b80604052505050565b6000620003436200025e565b905062000351828262000301565b919050565b600067ffffffffffffffff821115620003745762000373620002d2565b5b6200037f82620002c1565b9050602081019050919050565b60005b83811015620003ac5780820151818401526020810190506200038f565b60008484015250505050565b6000620003cf620003c98462000356565b62000337565b905082815260208101848484011115620003ee57620003ed620002bc565b5b620003fb8482856200038c565b509392505050565b600082601f8301126200041b576200041a620002b7565b5b81516200042d848260208601620003b8565b91505092915050565b6000806040838503121562000450576200044f62000268565b5b60006200046085828601620002a0565b925050602083015167ffffffffffffffff8111156200048457620004836200026d565b5b620004928582860162000403565b9150509250929050565b600081519050919050565b7f4e487b7100000000000000000000000000000000000000000000000000000000600052602260045260246000fd5b60006002820490506001821680620004ef57607f821691505b602082108103620005055762000504620004a7565b5b50919050565b60008190508160005260206000209050919050565b60006020601f8301049050919050565b600082821b905092915050565b6000600883026200056f7fffffffffffffffffffffffffffffffffffffffffffffffffffffffffffffffff8262000530565b6200057b868362000530565b95508019841693508086168417925050509392505050565b6000819050919050565b6000819050919050565b6000620005c8620005c2620005bc8462000593565b6200059d565b62000593565b9050919050565b6000819050919050565b620005e483620005a7565b620005fc620005f382620005cf565b8484546200053d565b825550505050565b600090565b6200061362000604565b62000620818484620005d9565b505050565b5b8181101562000648576200063c60008262000609565b60018101905062000626565b5050565b601f821115620006975762000661816200050b565b6200066c8462000520565b810160208510156200067c578190505b620006946200068b8562000520565b83018262000625565b50505b505050565b600082821c905092915050565b6000620006bc600019846008026200069c565b1980831691505092915050565b6000620006d78383620006a9565b9150826002028217905092915050565b620006f2826200049c565b67ffffffffffffffff8111156200070e576200070d620002d2565b5b6200071a8254620004d6565b620007278282856200064c565b600060209050601f8311600181146200075f57600084156200074a578287015190505b620007568582620006c9565b865550620007c6565b601f1984166200076f866200050b565b60005b82811015620007995784890151825560018201915060208501945060208101905062000772565b86831015620007b95784890151620007b5601f891682620006a9565b8355505b6001600288020188555050505b505050505050565b608051613002620007f16000396000818161030a015261157901526130026000f3fe608060405234801561001057600080fd5b50600436106100f55760003560e01c80637e2f0e161161009757806399d254551161006657806399d25455146102655780639d86698514610281578063f2fde38b146102b4578063fc2a88c3146102d0576100f5565b80637e2f0e16146101c95780638796ba8c146101e75780638cedd536146102175780638da5cb5b14610247576100f5565b806362747e42116100d357806362747e421461015257806367e828bf14610170578063715018a61461018e5780637922f42614610198576100f5565b806309c1ba2e146100fa5780630ca761751461011857806329f0de3f14610134575b600080fd5b6101026102ee565b60405161010f9190611d6d565b60405180910390f35b610132600480360381019061012d9190611f18565b610308565b005b61013c6103ca565b6040516101499190612022565b60405180910390f35b61015a610458565b6040516101679190612022565b60405180910390f35b6101786104e6565b6040516101859190612099565b60405180910390f35b610196610574565b005b6101b260048036038101906101ad91906120bb565b610588565b6040516101c09291906120e8565b60405180910390f35b6101d16106bc565b6040516101de91906121ad565b60405180910390f35b61020160048036038101906101fc9190612205565b610882565b60405161020e9190612241565b60405180910390f35b610231600480360381019061022c91906122fd565b6108a6565b60405161023e9190612241565b60405180910390f35b61024f610c26565b60405161025c9190612415565b60405180910390f35b61027f600480360381019061027a9190612430565b610c4f565b005b61029b600480360381019061029691906120bb565b610c6a565b6040516102ab9493929190612494565b60405180910390f35b6102ce60048036038101906102c99190612513565b610dc4565b005b6102d8610e47565b6040516102e59190612241565b60405180910390f35b600960049054906101000a900467ffffffffffffffff1681565b7f000000000000000000000000000000000000000000000000000000000000000073ffffffffffffffffffffffffffffffffffffffff163373ffffffffffffffffffffffffffffffffffffffff161461038d576040517fc6829f8300000000000000000000000000000000000000000000000000000000815260040160405180910390fd5b610398838383610e4d565b827f85e1543bf2f84fe80c6badbce3648c8539ad1df4d2b3d822938ca0538be727e660405160405180910390a2505050565b600380546103d79061256f565b80601f01602080910402602001604051908101604052809291908181526020018280546104039061256f565b80156104505780601f1061042557610100808354040283529160200191610450565b820191906000526020600020905b81548152906001019060200180831161043357829003601f168201915b505050505081565b600280546104659061256f565b80601f01602080910402602001604051908101604052809291908181526020018280546104919061256f565b80156104de5780601f106104b3576101008083540402835291602001916104de565b820191906000526020600020905b8154815290600101906020018083116104c157829003601f168201915b505050505081565b600a80546104f39061256f565b80601f016020809104026020016040519081016040528092919081815260200182805461051f9061256f565b801561056c5780601f106105415761010080835404028352916020019161056c565b820191906000526020600020905b81548152906001019060200180831161054f57829003601f168201915b505050505081565b61057c610fbd565b610586600061103b565b565b60056020528060005260406000206000915090508060000180546105ab9061256f565b80601f01602080910402602001604051908101604052809291908181526020018280546105d79061256f565b80156106245780601f106105f957610100808354040283529160200191610624565b820191906000526020600020905b81548152906001019060200180831161060757829003601f168201915b5050505050908060010180546106399061256f565b80601f01602080910402602001604051908101604052809291908181526020018280546106659061256f565b80156106b25780601f10610687576101008083540402835291602001916106b2565b820191906000526020600020905b81548152906001019060200180831161069557829003601f168201915b5050505050905082565b6106c4611c84565b60006006805490501161070c576040517f08c379a0000000000000000000000000000000000000000000000000000000008152600401610703906125ec565b60405180910390fd5b6005600060066001600680549050610724919061263b565b815481106107355761073461266f565b5b906000526020600020015481526020019081526020016000206040518060400160405290816000820180546107699061256f565b80601f01602080910402602001604051908101604052809291908181526020018280546107959061256f565b80156107e25780601f106107b7576101008083540402835291602001916107e2565b820191906000526020600020905b8154815290600101906020018083116107c557829003601f168201915b505050505081526020016001820180546107fb9061256f565b80601f01602080910402602001604051908101604052809291908181526020018280546108279061256f565b80156108745780601f1061084957610100808354040283529160200191610874565b820191906000526020600020905b81548152906001019060200180831161085757829003601f168201915b505050505081525050905090565b6006818154811061089257600080fd5b906000526020600020016000915090505481565b600080600467ffffffffffffffff8111156108c4576108c3611ded565b5b6040519080825280602002602001820160405280156108f757816020015b60608152602001906001900390816108e25790505b509050858160008151811061090f5761090e61266f565b5b6020026020010181905250848160018151811061092f5761092e61266f565b5b6020026020010181905250838160028151811061094f5761094e61266f565b5b6020026020010181905250828160038151811061096f5761096e61266f565b5b6020026020010181905250610982611c9e565b610a1f600a80546109929061256f565b80601f01602080910402602001604051908101604052809291908181526020018280546109be9061256f565b8015610a0b5780601f106109e057610100808354040283529160200191610a0b565b820191906000526020600020905b8154815290600101906020018083116109ee57829003601f168201915b5050505050826110ff90919063ffffffff16565b600082511115610a3d57610a3c828261111090919063ffffffff16565b5b610a7b610a4982611158565b600960049054906101000a900467ffffffffffffffff16600960009054906101000a900463ffffffff16600854611574565b6001819055506040518060400160405280878152602001604051806020016040528060008152508152506005600060015481526020019081526020016000206000820151816000019081610acf919061284a565b506020820151816001019081610ae5919061284a565b5090505060405180608001604052806000151581526020016001151581526020016040518060200160405280600081525081526020016040518060200160405280600081525081525060046000600154815260200190815260200160002060008201518160000160006101000a81548160ff02191690831515021790555060208201518160000160016101000a81548160ff0219169083151502179055506040820151816001019081610b989190612977565b506060820151816002019081610bae9190612977565b50905050600660015490806001815401808255809150506001900390600052602060002001600090919091909150556001547f88174de6a46a917320f5e3f37cf87c63bb0a0b6ba316948e048c3adef3a9cbff87604051610c0f9190612099565b60405180910390a260015492505050949350505050565b60008060009054906101000a900473ffffffffffffffffffffffffffffffffffffffff16905090565b610c57610fbd565b80600a9081610c66919061284a565b5050565b60046020528060005260406000206000915090508060000160009054906101000a900460ff16908060000160019054906101000a900460ff1690806001018054610cb39061256f565b80601f0160208091040260200160405190810160405280929190818152602001828054610cdf9061256f565b8015610d2c5780601f10610d0157610100808354040283529160200191610d2c565b820191906000526020600020905b815481529060010190602001808311610d0f57829003601f168201915b505050505090806002018054610d419061256f565b80601f0160208091040260200160405190810160405280929190818152602001828054610d6d9061256f565b8015610dba5780601f10610d8f57610100808354040283529160200191610dba565b820191906000526020600020905b815481529060010190602001808311610d9d57829003601f168201915b5050505050905084565b610dcc610fbd565b600073ffffffffffffffffffffffffffffffffffffffff168173ffffffffffffffffffffffffffffffffffffffff1603610e3b576040517f08c379a0000000000000000000000000000000000000000000000000000000008152600401610e3290612abb565b60405180910390fd5b610e448161103b565b50565b60015481565b6004600084815260200190815260200160002060000160019054906101000a900460ff16610eb0576040517f08c379a0000000000000000000000000000000000000000000000000000000008152600401610ea790612b27565b60405180910390fd5b8060039081610ebf9190612977565b508160029081610ecf9190612977565b50600082511115610f4157600060056000858152602001908152602001600020905082816001019081610f02919061284a565b50837f160ed0aaffbef6885155188b91459cb5a97d5daadccf7561d8c46deea6641b50848585604051610f3793929190612b47565b60405180910390a2505b60016004600085815260200190815260200160002060000160006101000a81548160ff02191690831515021790555081600460008581526020019081526020016000206001019081610f939190612977565b5080600460008581526020019081526020016000206002019081610fb79190612977565b50505050565b610fc5611657565b73ffffffffffffffffffffffffffffffffffffffff16610fe3610c26565b73ffffffffffffffffffffffffffffffffffffffff1614611039576040517f08c379a000000000000000000000000000000000000000000000000000000000815260040161103090612bdf565b60405180910390fd5b565b60008060009054906101000a900473ffffffffffffffffffffffffffffffffffffffff169050816000806101000a81548173ffffffffffffffffffffffffffffffffffffffff021916908373ffffffffffffffffffffffffffffffffffffffff1602179055508173ffffffffffffffffffffffffffffffffffffffff168173ffffffffffffffffffffffffffffffffffffffff167f8be0079c531659141344cd1fd0a4f28419497f9722a3daafe3b4186f6b6457e060405160405180910390a35050565b61110c826000808461165f565b5050565b600081510361114b576040517ffe936cb700000000000000000000000000000000000000000000000000000000815260040160405180910390fd5b808260a001819052505050565b60606000611167610100611709565b90506111b16040518060400160405280600c81526020017f636f64654c6f636174696f6e00000000000000000000000000000000000000008152508261173090919063ffffffff16565b6111da836000015160028111156111cb576111ca612bff565b5b8261175990919063ffffffff16565b6112226040518060400160405280600881526020017f6c616e67756167650000000000000000000000000000000000000000000000008152508261173090919063ffffffff16565b61124b8360400151600081111561123c5761123b612bff565b5b8261175990919063ffffffff16565b6112936040518060400160405280600681526020017f736f7572636500000000000000000000000000000000000000000000000000008152508261173090919063ffffffff16565b6112aa83606001518261173090919063ffffffff16565b60008360a00151511115611366576113006040518060400160405280600481526020017f61726773000000000000000000000000000000000000000000000000000000008152508261173090919063ffffffff16565b611309816117a9565b60005b8360a001515181101561135b5761134a8460a0015182815181106113335761133261266f565b5b60200260200101518361173090919063ffffffff16565b8061135490612c2e565b905061130c565b50611365816117d1565b5b600083608001515111156114a7576000600281111561138857611387612bff565b5b8360200151600281111561139f5761139e612bff565b5b036113d6576040517fa80d31f700000000000000000000000000000000000000000000000000000000815260040160405180910390fd5b61141e6040518060400160405280600f81526020017f736563726574734c6f636174696f6e00000000000000000000000000000000008152508261173090919063ffffffff16565b6114478360200151600281111561143857611437612bff565b5b8261175990919063ffffffff16565b61148f6040518060400160405280600781526020017f73656372657473000000000000000000000000000000000000000000000000008152508261173090919063ffffffff16565b6114a68360800151826117f990919063ffffffff16565b5b60008360c00151511115611563576114fd6040518060400160405280600981526020017f62797465734172677300000000000000000000000000000000000000000000008152508261173090919063ffffffff16565b611506816117a9565b60005b8360c0015151811015611558576115478460c0015182815181106115305761152f61266f565b5b6020026020010151836117f990919063ffffffff16565b8061155190612c2e565b9050611509565b50611562816117d1565b5b806000015160000151915050919050565b6000807f000000000000000000000000000000000000000000000000000000000000000073ffffffffffffffffffffffffffffffffffffffff1663461d27628688600188886040518663ffffffff1660e01b81526004016115d9959493929190612cb2565b6020604051808303816000875af11580156115f8573d6000803e3d6000fd5b505050506040513d601f19601f8201168201806040525081019061161c9190612d21565b9050807f1131472297a800fee664d1d89cfa8f7676ff07189ecc53f80bbb5f4969099db860405160405180910390a280915050949350505050565b600033905090565b600081510361169a576040517f22ce3edd00000000000000000000000000000000000000000000000000000000815260040160405180910390fd5b82846000019060028111156116b2576116b1612bff565b5b908160028111156116c6576116c5612bff565b5b8152505081846040019060008111156116e2576116e1612bff565b5b908160008111156116f6576116f5612bff565b5b8152505080846060018190525050505050565b611711611d10565b61171f816000015183611822565b506000816020018181525050919050565b61173d826003835161189b565b611754818360000151611a4490919063ffffffff16565b505050565b61177b60026005600660ff16901b178360000151611a6090919063ffffffff16565b506117a582826040516020016117919190612d5d565b6040516020818303038152906040526117f9565b5050565b6117b4816004611aca565b6001816020018181516117c79190612d78565b9150818152505050565b6117dc816007611aca565b6001816020018181516117ef919061263b565b9150818152505050565b611806826002835161189b565b61181d818360000151611a4490919063ffffffff16565b505050565b61182a611d30565b60006020836118399190612ddb565b146118655760208261184b9190612ddb565b6020611857919061263b565b826118629190612d78565b91505b81836020018181525050604051808452600081528281016020018181101561188c57600080fd5b80604052505082905092915050565b60178167ffffffffffffffff16116118d6576118d08160058460ff16901b60ff16178460000151611a6090919063ffffffff16565b50611a3f565b60ff8167ffffffffffffffff161161193457611909601860058460ff16901b178460000151611a6090919063ffffffff16565b5061192e8167ffffffffffffffff1660018560000151611af09092919063ffffffff16565b50611a3e565b61ffff8167ffffffffffffffff161161199357611968601960058460ff16901b178460000151611a6090919063ffffffff16565b5061198d8167ffffffffffffffff1660028560000151611af09092919063ffffffff16565b50611a3d565b63ffffffff8167ffffffffffffffff16116119f4576119c9601a60058460ff16901b178460000151611a6090919063ffffffff16565b506119ee8167ffffffffffffffff1660048560000151611af09092919063ffffffff16565b50611a3c565b611a15601b60058460ff16901b178460000151611a6090919063ffffffff16565b50611a3a8167ffffffffffffffff1660088560000151611af09092919063ffffffff16565b505b5b5b5b505050565b611a4c611d30565b611a5883838451611b7d565b905092915050565b611a68611d30565b600083600001515190506000600182611a819190612d78565b905084602001518210611aa557611aa485600283611a9f9190612e0c565b611c60565b5b84516020838201018581538151831115611abd578282525b5050849250505092915050565b611aeb601f60058360ff16901b178360000151611a6090919063ffffffff16565b505050565b611af8611d30565b6000846000015151905060008184611b109190612d78565b90508560200151811115611b3557611b3486600283611b2f9190612e0c565b611c60565b5b6000600185610100611b479190612f81565b611b51919061263b565b905086518281018783198251161781528151841115611b6e578382525b50508693505050509392505050565b611b85611d30565b8251821115611b9357600080fd5b6000846000015151905060008382611bab9190612d78565b90508560200151811115611bd057611bcf86600283611bca9190612e0c565b611c60565b5b60008087518051856020830101935080851115611beb578482525b60208901925050505b60208610611c325780518252602082611c0d9190612d78565b9150602081611c1c9190612d78565b9050602086611c2b919061263b565b9550611bf4565b60006001876020036101000a0390508019825116818451168181178552505050879450505050509392505050565b600082600001519050611c738383611822565b50611c7e8382611a44565b50505050565b604051806040016040528060608152602001606081525090565b6040518060e0016040528060006002811115611cbd57611cbc612bff565b5b815260200160006002811115611cd657611cd5612bff565b5b8152602001600080811115611cee57611ced612bff565b5b8152602001606081526020016060815260200160608152602001606081525090565b6040518060400160405280611d23611d30565b8152602001600081525090565b604051806040016040528060608152602001600081525090565b600067ffffffffffffffff82169050919050565b611d6781611d4a565b82525050565b6000602082019050611d826000830184611d5e565b92915050565b6000604051905090565b600080fd5b600080fd5b6000819050919050565b611daf81611d9c565b8114611dba57600080fd5b50565b600081359050611dcc81611da6565b92915050565b600080fd5b600080fd5b6000601f19601f8301169050919050565b7f4e487b7100000000000000000000000000000000000000000000000000000000600052604160045260246000fd5b611e2582611ddc565b810181811067ffffffffffffffff82111715611e4457611e43611ded565b5b80604052505050565b6000611e57611d88565b9050611e638282611e1c565b919050565b600067ffffffffffffffff821115611e8357611e82611ded565b5b611e8c82611ddc565b9050602081019050919050565b82818337600083830152505050565b6000611ebb611eb684611e68565b611e4d565b905082815260208101848484011115611ed757611ed6611dd7565b5b611ee2848285611e99565b509392505050565b600082601f830112611eff57611efe611dd2565b5b8135611f0f848260208601611ea8565b91505092915050565b600080600060608486031215611f3157611f30611d92565b5b6000611f3f86828701611dbd565b935050602084013567ffffffffffffffff811115611f6057611f5f611d97565b5b611f6c86828701611eea565b925050604084013567ffffffffffffffff811115611f8d57611f8c611d97565b5b611f9986828701611eea565b9150509250925092565b600081519050919050565b600082825260208201905092915050565b60005b83811015611fdd578082015181840152602081019050611fc2565b60008484015250505050565b6000611ff482611fa3565b611ffe8185611fae565b935061200e818560208601611fbf565b61201781611ddc565b840191505092915050565b6000602082019050818103600083015261203c8184611fe9565b905092915050565b600081519050919050565b600082825260208201905092915050565b600061206b82612044565b612075818561204f565b9350612085818560208601611fbf565b61208e81611ddc565b840191505092915050565b600060208201905081810360008301526120b38184612060565b905092915050565b6000602082840312156120d1576120d0611d92565b5b60006120df84828501611dbd565b91505092915050565b600060408201905081810360008301526121028185612060565b905081810360208301526121168184612060565b90509392505050565b600082825260208201905092915050565b600061213b82612044565b612145818561211f565b9350612155818560208601611fbf565b61215e81611ddc565b840191505092915050565b600060408301600083015184820360008601526121868282612130565b915050602083015184820360208601526121a08282612130565b9150508091505092915050565b600060208201905081810360008301526121c78184612169565b905092915050565b6000819050919050565b6121e2816121cf565b81146121ed57600080fd5b50565b6000813590506121ff816121d9565b92915050565b60006020828403121561221b5761221a611d92565b5b6000612229848285016121f0565b91505092915050565b61223b81611d9c565b82525050565b60006020820190506122566000830184612232565b92915050565b600067ffffffffffffffff82111561227757612276611ded565b5b61228082611ddc565b9050602081019050919050565b60006122a061229b8461225c565b611e4d565b9050828152602081018484840111156122bc576122bb611dd7565b5b6122c7848285611e99565b509392505050565b600082601f8301126122e4576122e3611dd2565b5b81356122f484826020860161228d565b91505092915050565b6000806000806080858703121561231757612316611d92565b5b600085013567ffffffffffffffff81111561233557612334611d97565b5b612341878288016122cf565b945050602085013567ffffffffffffffff81111561236257612361611d97565b5b61236e878288016122cf565b935050604085013567ffffffffffffffff81111561238f5761238e611d97565b5b61239b878288016122cf565b925050606085013567ffffffffffffffff8111156123bc576123bb611d97565b5b6123c8878288016122cf565b91505092959194509250565b600073ffffffffffffffffffffffffffffffffffffffff82169050919050565b60006123ff826123d4565b9050919050565b61240f816123f4565b82525050565b600060208201905061242a6000830184612406565b92915050565b60006020828403121561244657612445611d92565b5b600082013567ffffffffffffffff81111561246457612463611d97565b5b612470848285016122cf565b91505092915050565b60008115159050919050565b61248e81612479565b82525050565b60006080820190506124a96000830187612485565b6124b66020830186612485565b81810360408301526124c88185611fe9565b905081810360608301526124dc8184611fe9565b905095945050505050565b6124f0816123f4565b81146124fb57600080fd5b50565b60008135905061250d816124e7565b92915050565b60006020828403121561252957612528611d92565b5b6000612537848285016124fe565b91505092915050565b7f4e487b7100000000000000000000000000000000000000000000000000000000600052602260045260246000fd5b6000600282049050600182168061258757607f821691505b60208210810361259a57612599612540565b5b50919050565b7f4e6f206163746976697469657320666f756e6400000000000000000000000000600082015250565b60006125d660138361204f565b91506125e1826125a0565b602082019050919050565b60006020820190508181036000830152612605816125c9565b9050919050565b7f4e487b7100000000000000000000000000000000000000000000000000000000600052601160045260246000fd5b6000612646826121cf565b9150612651836121cf565b92508282039050818111156126695761266861260c565b5b92915050565b7f4e487b7100000000000000000000000000000000000000000000000000000000600052603260045260246000fd5b60008190508160005260206000209050919050565b60006020601f8301049050919050565b600082821b905092915050565b6000600883026127007fffffffffffffffffffffffffffffffffffffffffffffffffffffffffffffffff826126c3565b61270a86836126c3565b95508019841693508086168417925050509392505050565b6000819050919050565b600061274761274261273d846121cf565b612722565b6121cf565b9050919050565b6000819050919050565b6127618361272c565b61277561276d8261274e565b8484546126d0565b825550505050565b600090565b61278a61277d565b612795818484612758565b505050565b5b818110156127b9576127ae600082612782565b60018101905061279b565b5050565b601f8211156127fe576127cf8161269e565b6127d8846126b3565b810160208510156127e7578190505b6127fb6127f3856126b3565b83018261279a565b50505b505050565b600082821c905092915050565b600061282160001984600802612803565b1980831691505092915050565b600061283a8383612810565b9150826002028217905092915050565b61285382612044565b67ffffffffffffffff81111561286c5761286b611ded565b5b612876825461256f565b6128818282856127bd565b600060209050601f8311600181146128b457600084156128a2578287015190505b6128ac858261282e565b865550612914565b601f1984166128c28661269e565b60005b828110156128ea578489015182556001820191506020850194506020810190506128c5565b868310156129075784890151612903601f891682612810565b8355505b6001600288020188555050505b505050505050565b60008190508160005260206000209050919050565b601f821115612972576129438161291c565b61294c846126b3565b8101602085101561295b578190505b61296f612967856126b3565b83018261279a565b50505b505050565b61298082611fa3565b67ffffffffffffffff81111561299957612998611ded565b5b6129a3825461256f565b6129ae828285612931565b600060209050601f8311600181146129e157600084156129cf578287015190505b6129d9858261282e565b865550612a41565b601f1984166129ef8661291c565b60005b82811015612a17578489015182556001820191506020850194506020810190506129f2565b86831015612a345784890151612a30601f891682612810565b8355505b6001600288020188555050505b505050505050565b7f4f776e61626c653a206e6577206f776e657220697320746865207a65726f206160008201527f6464726573730000000000000000000000000000000000000000000000000000602082015250565b6000612aa560268361204f565b9150612ab082612a49565b604082019050919050565b60006020820190508181036000830152612ad481612a98565b9050919050565b7f72657175657374206e6f7420666f756e64000000000000000000000000000000600082015250565b6000612b1160118361204f565b9150612b1c82612adb565b602082019050919050565b60006020820190508181036000830152612b4081612b04565b9050919050565b60006060820190508181036000830152612b618186612060565b90508181036020830152612b758185611fe9565b90508181036040830152612b898184611fe9565b9050949350505050565b7f4f776e61626c653a2063616c6c6572206973206e6f7420746865206f776e6572600082015250565b6000612bc960208361204f565b9150612bd482612b93565b602082019050919050565b60006020820190508181036000830152612bf881612bbc565b9050919050565b7f4e487b7100000000000000000000000000000000000000000000000000000000600052602160045260246000fd5b6000612c39826121cf565b91507fffffffffffffffffffffffffffffffffffffffffffffffffffffffffffffffff8203612c6b57612c6a61260c565b5b600182019050919050565b600061ffff82169050919050565b612c8d81612c76565b82525050565b600063ffffffff82169050919050565b612cac81612c93565b82525050565b600060a082019050612cc76000830188611d5e565b8181036020830152612cd98187611fe9565b9050612ce86040830186612c84565b612cf56060830185612ca3565b612d026080830184612232565b9695505050505050565b600081519050612d1b81611da6565b92915050565b600060208284031215612d3757612d36611d92565b5b6000612d4584828501612d0c565b91505092915050565b612d57816121cf565b82525050565b6000602082019050612d726000830184612d4e565b92915050565b6000612d83826121cf565b9150612d8e836121cf565b9250828201905080821115612da657612da561260c565b5b92915050565b7f4e487b7100000000000000000000000000000000000000000000000000000000600052601260045260246000fd5b6000612de6826121cf565b9150612df1836121cf565b925082612e0157612e00612dac565b5b828206905092915050565b6000612e17826121cf565b9150612e22836121cf565b9250828202612e30816121cf565b91508282048414831517612e4757612e4661260c565b5b5092915050565b60008160011c9050919050565b6000808291508390505b6001851115612ea557808604811115612e8157612e8061260c565b5b6001851615612e905780820291505b8081029050612e9e85612e4e565b9450612e65565b94509492505050565b600082612ebe5760019050612f7a565b81612ecc5760009050612f7a565b8160018114612ee25760028114612eec57612f1b565b6001915050612f7a565b60ff841115612efe57612efd61260c565b5b8360020a915084821115612f1557612f1461260c565b5b50612f7a565b5060208310610133831016604e8410600b8410161715612f505782820a905083811115612f4b57612f4a61260c565b5b612f7a565b612f5d8484846001612e5b565b92509050818404811115612f7457612f7361260c565b5b81810290505b9392505050565b6000612f8c826121cf565b9150612f97836121cf565b9250612fc47fffffffffffffffffffffffffffffffffffffffffffffffffffffffffffffffff8484612eae565b90509291505056fea26469706673582212206c907176ec0d965aa593a235647119170e27f73851b24853853a98feccfc782364736f6c63430008140033",
  "linkReferences": {},
  "deployedLinkReferences": {}
}